{
  "_format": "hh-sol-artifact-1",
  "contractName": "Prediction",
  "sourceName": "contracts/Prediction.sol",
  "abi": [
    {
      "inputs": [
        {
          "internalType": "contract IERC20",
          "name": "_bund",
          "type": "address"
        }
      ],
      "stateMutability": "nonpayable",
      "type": "constructor"
    },
    {
      "anonymous": false,
      "inputs": [
        {
          "indexed": false,
          "internalType": "address",
          "name": "_admin",
          "type": "address"
        },
        {
          "indexed": false,
          "internalType": "bool",
          "name": "_enabled",
          "type": "bool"
        }
      ],
      "name": "AdminAccessSet",
      "type": "event"
    },
    {
      "anonymous": false,
      "inputs": [
        {
          "indexed": false,
          "internalType": "uint256",
          "name": "poolId",
          "type": "uint256"
        },
        {
          "indexed": false,
          "internalType": "uint16[]",
          "name": "results",
          "type": "uint16[]"
        }
      ],
      "name": "GradedPools",
      "type": "event"
    },
    {
      "anonymous": false,
      "inputs": [
        {
          "indexed": true,
          "internalType": "uint8",
          "name": "leagueId",
          "type": "uint8"
        },
        {
          "indexed": false,
          "internalType": "string",
          "name": "name",
          "type": "string"
        },
        {
          "indexed": false,
          "internalType": "string",
          "name": "sport",
          "type": "string"
        }
      ],
      "name": "LeagueAdded",
      "type": "event"
    },
    {
      "anonymous": false,
      "inputs": [
        {
          "indexed": true,
          "internalType": "uint8",
          "name": "leagueId",
          "type": "uint8"
        },
        {
          "indexed": false,
          "internalType": "string",
          "name": "name",
          "type": "string"
        },
        {
          "indexed": false,
          "internalType": "string",
          "name": "sport",
          "type": "string"
        }
      ],
      "name": "LeagueUpdated",
      "type": "event"
    },
    {
      "anonymous": false,
      "inputs": [
        {
          "indexed": true,
          "internalType": "uint8",
          "name": "leagueId",
          "type": "uint8"
        },
        {
          "indexed": false,
          "internalType": "uint256",
          "name": "espnMatchId",
          "type": "uint256"
        },
        {
          "indexed": true,
          "internalType": "uint256",
          "name": "matchId",
          "type": "uint256"
        }
      ],
      "name": "MatchAdded",
      "type": "event"
    },
    {
      "anonymous": false,
      "inputs": [
        {
          "indexed": true,
          "internalType": "uint8",
          "name": "leagueId",
          "type": "uint8"
        },
        {
          "indexed": false,
          "internalType": "uint256",
          "name": "espnMatchId",
          "type": "uint256"
        },
        {
          "indexed": true,
          "internalType": "uint256",
          "name": "matchId",
          "type": "uint256"
        }
      ],
      "name": "MatchUpdated",
      "type": "event"
    },
    {
      "anonymous": false,
      "inputs": [
        {
          "indexed": true,
          "internalType": "address",
          "name": "previousOwner",
          "type": "address"
        },
        {
          "indexed": true,
          "internalType": "address",
          "name": "newOwner",
          "type": "address"
        }
      ],
      "name": "OwnershipTransferred",
      "type": "event"
    },
    {
      "anonymous": false,
      "inputs": [
        {
          "indexed": false,
          "internalType": "address",
          "name": "account",
          "type": "address"
        }
      ],
      "name": "Paused",
      "type": "event"
    },
    {
      "anonymous": false,
      "inputs": [
        {
          "indexed": true,
          "internalType": "uint256",
          "name": "poolId",
          "type": "uint256"
        },
        {
          "indexed": false,
          "internalType": "uint256[]",
          "name": "matchIds",
          "type": "uint256[]"
        },
        {
          "indexed": false,
          "internalType": "uint256",
          "name": "startTime",
          "type": "uint256"
        },
        {
          "indexed": false,
          "internalType": "uint256",
          "name": "endTime",
          "type": "uint256"
        },
        {
          "indexed": false,
          "internalType": "uint256",
          "name": "fee",
          "type": "uint256"
        }
      ],
      "name": "PoolAdded",
      "type": "event"
    },
    {
      "anonymous": false,
      "inputs": [
        {
          "indexed": true,
          "internalType": "uint256",
          "name": "predictionId",
          "type": "uint256"
        },
        {
          "indexed": false,
          "internalType": "uint256[]",
          "name": "matchIds",
          "type": "uint256[]"
        },
        {
          "indexed": false,
          "internalType": "uint16[]",
          "name": "choices",
          "type": "uint16[]"
        },
        {
          "indexed": false,
          "internalType": "uint256",
          "name": "poolId",
          "type": "uint256"
        },
        {
          "indexed": false,
          "internalType": "address",
          "name": "predictor",
          "type": "address"
        }
      ],
      "name": "PoolPredicted",
      "type": "event"
    },
    {
      "anonymous": false,
      "inputs": [
        {
          "indexed": true,
          "internalType": "uint256",
          "name": "poolId",
          "type": "uint256"
        },
        {
          "indexed": false,
          "internalType": "uint256[]",
          "name": "matchIds",
          "type": "uint256[]"
        },
        {
          "indexed": false,
          "internalType": "uint256",
          "name": "startTime",
          "type": "uint256"
        },
        {
          "indexed": false,
          "internalType": "uint256",
          "name": "endTime",
          "type": "uint256"
        },
        {
          "indexed": false,
          "internalType": "uint256",
          "name": "fee",
          "type": "uint256"
        }
      ],
      "name": "PoolUpdated",
      "type": "event"
    },
    {
      "anonymous": false,
      "inputs": [
        {
          "indexed": true,
          "internalType": "uint256",
          "name": "predictionId",
          "type": "uint256"
        },
        {
          "indexed": false,
          "internalType": "uint256[]",
          "name": "matchIds",
          "type": "uint256[]"
        },
        {
          "indexed": false,
          "internalType": "uint16[]",
          "name": "choices",
          "type": "uint16[]"
        },
        {
          "indexed": false,
          "internalType": "uint256",
          "name": "poolId",
          "type": "uint256"
        },
        {
          "indexed": false,
          "internalType": "address",
          "name": "predictor",
          "type": "address"
        }
      ],
      "name": "PredictionUpdated",
      "type": "event"
    },
    {
      "anonymous": false,
      "inputs": [
        {
          "indexed": false,
          "internalType": "uint256",
          "name": "poolId",
          "type": "uint256"
        },
        {
          "indexed": false,
          "internalType": "address[]",
          "name": "winners",
          "type": "address[]"
        },
        {
          "indexed": false,
          "internalType": "uint256[]",
          "name": "amount",
          "type": "uint256[]"
        }
      ],
      "name": "RewardedPools",
      "type": "event"
    },
    {
      "anonymous": false,
      "inputs": [
        {
          "indexed": false,
          "internalType": "address",
          "name": "account",
          "type": "address"
        }
      ],
      "name": "Unpaused",
      "type": "event"
    },
    {
      "inputs": [
        {
          "components": [
            {
              "internalType": "string",
              "name": "name",
              "type": "string"
            },
            {
              "internalType": "string",
              "name": "sport",
              "type": "string"
            }
          ],
          "internalType": "struct Prediction.League",
          "name": "_league",
          "type": "tuple"
        }
      ],
      "name": "addLeague",
      "outputs": [],
      "stateMutability": "nonpayable",
      "type": "function"
    },
    {
      "inputs": [
        {
          "components": [
            {
              "internalType": "string",
              "name": "name",
              "type": "string"
            },
            {
              "internalType": "string",
              "name": "sport",
              "type": "string"
            }
          ],
          "internalType": "struct Prediction.League[]",
          "name": "_leagues",
          "type": "tuple[]"
        }
      ],
      "name": "addLeagues",
      "outputs": [],
      "stateMutability": "nonpayable",
      "type": "function"
    },
    {
      "inputs": [
        {
          "components": [
            {
              "internalType": "uint8",
              "name": "leagueId",
              "type": "uint8"
            },
            {
              "internalType": "uint256",
              "name": "espnMatchId",
              "type": "uint256"
            }
          ],
          "internalType": "struct Prediction.Match",
          "name": "_matchData",
          "type": "tuple"
        }
      ],
      "name": "addMatch",
      "outputs": [],
      "stateMutability": "nonpayable",
      "type": "function"
    },
    {
      "inputs": [
        {
          "components": [
            {
              "internalType": "uint8",
              "name": "leagueId",
              "type": "uint8"
            },
            {
              "internalType": "uint256",
              "name": "espnMatchId",
              "type": "uint256"
            }
          ],
          "internalType": "struct Prediction.Match[]",
          "name": "_matchData",
          "type": "tuple[]"
        }
      ],
      "name": "addMatches",
      "outputs": [],
      "stateMutability": "nonpayable",
      "type": "function"
    },
    {
      "inputs": [
        {
          "components": [
            {
              "internalType": "uint256[]",
              "name": "matchIds",
              "type": "uint256[]"
            },
            {
              "internalType": "uint16[]",
              "name": "results",
              "type": "uint16[]"
            },
            {
              "internalType": "uint256",
              "name": "startTime",
              "type": "uint256"
            },
            {
              "internalType": "uint256",
              "name": "endTime",
              "type": "uint256"
            },
            {
              "internalType": "uint256",
              "name": "fee",
              "type": "uint256"
            }
          ],
          "internalType": "struct Prediction.Pool",
          "name": "_pool",
          "type": "tuple"
        }
      ],
      "name": "addPool",
      "outputs": [],
      "stateMutability": "nonpayable",
      "type": "function"
    },
    {
      "inputs": [
        {
          "components": [
            {
              "internalType": "uint256[]",
              "name": "matchIds",
              "type": "uint256[]"
            },
            {
              "internalType": "uint16[]",
              "name": "choices",
              "type": "uint16[]"
            },
            {
              "internalType": "uint8",
              "name": "poolId",
              "type": "uint8"
            },
            {
              "internalType": "address",
              "name": "predictor",
              "type": "address"
            }
          ],
          "internalType": "struct Prediction.PoolPrediction",
          "name": "prediction",
          "type": "tuple"
        }
      ],
      "name": "addPoolPrediction",
      "outputs": [],
      "stateMutability": "nonpayable",
      "type": "function"
    },
    {
      "inputs": [],
      "name": "bund",
      "outputs": [
        {
          "internalType": "contract IERC20",
          "name": "",
          "type": "address"
        }
      ],
      "stateMutability": "view",
      "type": "function"
    },
    {
      "inputs": [
        {
          "internalType": "uint256",
          "name": "_predictionId",
          "type": "uint256"
        }
      ],
      "name": "getChoicesOfPrediction",
      "outputs": [
        {
          "internalType": "uint16[]",
          "name": "",
          "type": "uint16[]"
        }
      ],
      "stateMutability": "view",
      "type": "function"
    },
    {
      "inputs": [
        {
          "internalType": "uint256",
          "name": "_poolId",
          "type": "uint256"
        }
      ],
      "name": "getMatchIdsOfPool",
      "outputs": [
        {
          "internalType": "uint256[]",
          "name": "",
          "type": "uint256[]"
        }
      ],
      "stateMutability": "view",
      "type": "function"
    },
    {
      "inputs": [
        {
          "internalType": "uint256",
          "name": "_poolId",
          "type": "uint256"
        }
      ],
      "name": "getResultsOfPool",
      "outputs": [
        {
          "internalType": "uint16[]",
          "name": "",
          "type": "uint16[]"
        }
      ],
      "stateMutability": "view",
      "type": "function"
    },
    {
      "inputs": [
        {
          "internalType": "uint256",
          "name": "_poolId",
          "type": "uint256"
        },
        {
          "internalType": "uint16[]",
          "name": "_results",
          "type": "uint16[]"
        }
      ],
      "name": "gradePools",
      "outputs": [],
      "stateMutability": "nonpayable",
      "type": "function"
    },
    {
      "inputs": [
        {
          "internalType": "address",
          "name": "admin",
          "type": "address"
        }
      ],
      "name": "isAdmin",
      "outputs": [
        {
          "internalType": "bool",
          "name": "",
          "type": "bool"
        }
      ],
      "stateMutability": "view",
      "type": "function"
    },
    {
      "inputs": [
        {
          "internalType": "address",
          "name": "",
          "type": "address"
        },
        {
          "internalType": "uint256",
          "name": "",
          "type": "uint256"
        }
      ],
      "name": "isPredictedByPool",
      "outputs": [
        {
          "internalType": "bool",
          "name": "",
          "type": "bool"
        }
      ],
      "stateMutability": "view",
      "type": "function"
    },
    {
      "inputs": [
        {
          "internalType": "uint256",
          "name": "",
          "type": "uint256"
        }
      ],
      "name": "leagues",
      "outputs": [
        {
          "internalType": "string",
          "name": "name",
          "type": "string"
        },
        {
          "internalType": "string",
          "name": "sport",
          "type": "string"
        }
      ],
      "stateMutability": "view",
      "type": "function"
    },
    {
      "inputs": [
        {
          "internalType": "uint8",
          "name": "",
          "type": "uint8"
        },
        {
          "internalType": "uint256",
          "name": "",
          "type": "uint256"
        }
      ],
      "name": "matchIndex",
      "outputs": [
        {
          "internalType": "uint256",
          "name": "",
          "type": "uint256"
        }
      ],
      "stateMutability": "view",
      "type": "function"
    },
    {
      "inputs": [
        {
          "internalType": "uint256",
          "name": "",
          "type": "uint256"
        }
      ],
      "name": "matches",
      "outputs": [
        {
          "internalType": "uint8",
          "name": "leagueId",
          "type": "uint8"
        },
        {
          "internalType": "uint256",
          "name": "espnMatchId",
          "type": "uint256"
        }
      ],
      "stateMutability": "view",
      "type": "function"
    },
    {
      "inputs": [],
      "name": "owner",
      "outputs": [
        {
          "internalType": "address",
          "name": "",
          "type": "address"
        }
      ],
      "stateMutability": "view",
      "type": "function"
    },
    {
      "inputs": [],
      "name": "pause",
      "outputs": [],
      "stateMutability": "nonpayable",
      "type": "function"
    },
    {
      "inputs": [],
      "name": "paused",
      "outputs": [
        {
          "internalType": "bool",
          "name": "",
          "type": "bool"
        }
      ],
      "stateMutability": "view",
      "type": "function"
    },
    {
      "inputs": [
        {
          "internalType": "uint256",
          "name": "",
          "type": "uint256"
        }
      ],
      "name": "pools",
      "outputs": [
        {
          "internalType": "uint256",
          "name": "startTime",
          "type": "uint256"
        },
        {
          "internalType": "uint256",
          "name": "endTime",
          "type": "uint256"
        },
        {
          "internalType": "uint256",
          "name": "fee",
          "type": "uint256"
        }
      ],
      "stateMutability": "view",
      "type": "function"
    },
    {
      "inputs": [
        {
          "internalType": "uint256",
          "name": "",
          "type": "uint256"
        }
      ],
      "name": "predictions",
      "outputs": [
        {
          "internalType": "uint8",
          "name": "poolId",
          "type": "uint8"
        },
        {
          "internalType": "address",
          "name": "predictor",
          "type": "address"
        }
      ],
      "stateMutability": "view",
      "type": "function"
    },
    {
      "inputs": [],
      "name": "renounceOwnership",
      "outputs": [],
      "stateMutability": "nonpayable",
      "type": "function"
    },
    {
      "inputs": [
        {
          "internalType": "uint256",
          "name": "_poolId",
          "type": "uint256"
        },
        {
          "internalType": "address[]",
          "name": "_winners",
          "type": "address[]"
        },
        {
          "internalType": "uint256[]",
          "name": "_amounts",
          "type": "uint256[]"
        }
      ],
      "name": "rewardPools",
      "outputs": [],
      "stateMutability": "nonpayable",
      "type": "function"
    },
    {
      "inputs": [
        {
          "internalType": "address",
          "name": "admin",
          "type": "address"
        },
        {
          "internalType": "bool",
          "name": "enabled",
          "type": "bool"
        }
      ],
      "name": "setAdmin",
      "outputs": [],
      "stateMutability": "nonpayable",
      "type": "function"
    },
    {
      "inputs": [
        {
          "internalType": "address",
          "name": "newOwner",
          "type": "address"
        }
      ],
      "name": "transferOwnership",
      "outputs": [],
      "stateMutability": "nonpayable",
      "type": "function"
    },
    {
      "inputs": [],
      "name": "treasury",
      "outputs": [
        {
          "internalType": "address",
          "name": "",
          "type": "address"
        }
      ],
      "stateMutability": "view",
      "type": "function"
    },
    {
      "inputs": [],
      "name": "treasuryPercentage",
      "outputs": [
        {
          "internalType": "uint256",
          "name": "",
          "type": "uint256"
        }
      ],
      "stateMutability": "view",
      "type": "function"
    },
    {
      "inputs": [],
      "name": "unpause",
      "outputs": [],
      "stateMutability": "nonpayable",
      "type": "function"
    },
    {
      "inputs": [
        {
          "internalType": "uint8",
          "name": "_id",
          "type": "uint8"
        },
        {
          "components": [
            {
              "internalType": "string",
              "name": "name",
              "type": "string"
            },
            {
              "internalType": "string",
              "name": "sport",
              "type": "string"
            }
          ],
          "internalType": "struct Prediction.League",
          "name": "_league",
          "type": "tuple"
        }
      ],
      "name": "updateLeague",
      "outputs": [],
      "stateMutability": "nonpayable",
      "type": "function"
    },
    {
      "inputs": [
        {
          "internalType": "uint256",
          "name": "matchId",
          "type": "uint256"
        },
        {
          "components": [
            {
              "internalType": "uint8",
              "name": "leagueId",
              "type": "uint8"
            },
            {
              "internalType": "uint256",
              "name": "espnMatchId",
              "type": "uint256"
            }
          ],
          "internalType": "struct Prediction.Match",
          "name": "matchData",
          "type": "tuple"
        }
      ],
      "name": "updateMatch",
      "outputs": [],
      "stateMutability": "nonpayable",
      "type": "function"
    },
    {
      "inputs": [
        {
          "internalType": "uint256",
          "name": "_poolId",
          "type": "uint256"
        },
        {
          "components": [
            {
              "internalType": "uint256[]",
              "name": "matchIds",
              "type": "uint256[]"
            },
            {
              "internalType": "uint16[]",
              "name": "results",
              "type": "uint16[]"
            },
            {
              "internalType": "uint256",
              "name": "startTime",
              "type": "uint256"
            },
            {
              "internalType": "uint256",
              "name": "endTime",
              "type": "uint256"
            },
            {
              "internalType": "uint256",
              "name": "fee",
              "type": "uint256"
            }
          ],
          "internalType": "struct Prediction.Pool",
          "name": "_pool",
          "type": "tuple"
        }
      ],
      "name": "updatePool",
      "outputs": [],
      "stateMutability": "nonpayable",
      "type": "function"
    },
    {
      "inputs": [
        {
          "internalType": "uint256",
          "name": "_predictionId",
          "type": "uint256"
        },
        {
          "components": [
            {
              "internalType": "uint256[]",
              "name": "matchIds",
              "type": "uint256[]"
            },
            {
              "internalType": "uint16[]",
              "name": "choices",
              "type": "uint16[]"
            },
            {
              "internalType": "uint8",
              "name": "poolId",
              "type": "uint8"
            },
            {
              "internalType": "address",
              "name": "predictor",
              "type": "address"
            }
          ],
          "internalType": "struct Prediction.PoolPrediction",
          "name": "prediction",
          "type": "tuple"
        }
      ],
      "name": "updatePoolPrediction",
      "outputs": [],
      "stateMutability": "nonpayable",
      "type": "function"
    },
    {
      "inputs": [
        {
          "internalType": "address",
          "name": "_treasury",
          "type": "address"
        }
      ],
      "name": "updateTreasury",
      "outputs": [],
      "stateMutability": "nonpayable",
      "type": "function"
    },
    {
      "inputs": [
        {
          "internalType": "uint256",
          "name": "_percent",
          "type": "uint256"
        }
      ],
      "name": "updateTreasuryPercentage",
      "outputs": [],
      "stateMutability": "nonpayable",
      "type": "function"
    },
    {
      "inputs": [],
      "name": "withdraw",
      "outputs": [],
      "stateMutability": "nonpayable",
      "type": "function"
    },
    {
      "inputs": [
        {
          "internalType": "contract IERC20",
          "name": "_token",
          "type": "address"
        }
      ],
      "name": "withdrawERC20",
      "outputs": [],
      "stateMutability": "nonpayable",
      "type": "function"
    }
  ],
  "bytecode": "0x60a06040523480156200001157600080fd5b506040516200446d3803806200446d8339810160408190526200003491620000af565b6200003f336200005f565b6002805460ff1916905560601b6001600160601b031916608052620000df565b600080546001600160a01b038381166001600160a01b0319831681178455604051919092169283917f8be0079c531659141344cd1fd0a4f28419497f9722a3daafe3b4186f6b6457e09190a35050565b600060208284031215620000c1578081fd5b81516001600160a01b0381168114620000d8578182fd5b9392505050565b60805160601c6143536200011a6000396000818161025e01528181611455015281816114dc015281816115eb01526118f401526143536000f3fe608060405234801561001057600080fd5b506004361061021b5760003560e01c8063874375df11610125578063b6e2ea3d116100ad578063d362a24c1161007c578063d362a24c1461053f578063df4b4a8d1461055f578063ef9c726b14610572578063f2fde38b14610585578063f4f3b2001461059857600080fd5b8063b6e2ea3d146104e5578063bc645294146104f8578063c648fefe1461050b578063d219b2081461052c57600080fd5b8063a57275a4116100f4578063a57275a41461046b578063a6b35a311461047e578063ac02656114610491578063ac4afa38146104a4578063b554640f146104d257600080fd5b8063874375df146104215780638da5cb5b146104345780639d5356a714610445578063a0d5dfb21461045857600080fd5b80634b0bddd2116101a8578063715018a611610177578063715018a6146103d55780637ab56083146103dd5780637f51bb1f146103e65780638456cb59146103f957806386e95c831461040157600080fd5b80634b0bddd21461038c5780634d6a22c61461039f5780635c975abb146103b257806361d027b3146103bd57600080fd5b806338d66664116101ef57806338d666641461030d5780633ccfd60b146103225780633f4ba83a1461032a5780634768d4ef14610332578063492fc10e1461035e57600080fd5b80624fbbb0146102205780630f74459f1461025957806324d7806c14610298578063299d28fe146102d4575b600080fd5b61023361022e36600461358c565b6105ab565b6040805160ff90931683526001600160a01b039091166020830152015b60405180910390f35b6102807f000000000000000000000000000000000000000000000000000000000000000081565b6040516001600160a01b039091168152602001610250565b6102c46102a6366004613368565b6001600160a01b031660009081526001602052604090205460ff1690565b6040519015158152602001610250565b6102ff6102e23660046137db565b600660209081526000928352604080842090915290825290205481565b604051908152602001610250565b61032061031b36600461342d565b6105e6565b005b6103206106b6565b610320610729565b61034561034036600461358c565b6107c0565b6040805160ff9093168352602083019190915201610250565b6102c461036c3660046133c3565b600960209081526000928352604080842090915290825290205460ff1681565b61032061039a36600461338b565b6107f2565b6103206103ad366004613798565b61087f565b60025460ff166102c4565b6002546102809061010090046001600160a01b031681565b6103206109df565b6102ff60035481565b6103206103f4366004613368565b610a13565b610320610b40565b61041461040f36600461358c565b610baf565b6040516102509190613912565b61041461042f36600461358c565b610c61565b6000546001600160a01b0316610280565b61032061045336600461355a565b610ced565b610320610466366004613528565b610ff0565b6103206104793660046135bc565b611752565b61032061048c3660046134f2565b6119fe565b61032061049f366004613689565b611a77565b6104b76104b236600461358c565b611c66565b60408051938452602084019290925290820152606001610250565b6103206104e03660046136fe565b611c9c565b6103206104f33660046136d2565b61203c565b610320610506366004613742565b61238e565b61051e61051936600461358c565b612737565b604051610250929190613a1e565b61032061053a36600461358c565b61287b565b61055261054d36600461358c565b6128c4565b60405161025091906139d9565b61032061056d3660046134b8565b612946565b6103206105803660046133ee565b6129b6565b610320610593366004613368565b612a74565b6103206105a6366004613368565b612b0c565b600881815481106105bb57600080fd5b600091825260209091206003909102016002015460ff8116915061010090046001600160a01b031682565b3360009081526001602052604090205460ff168061060e57506000546001600160a01b031633145b6106335760405162461bcd60e51b815260040161062a90613b44565b60405180910390fd5b60025460ff16156106565760405162461bcd60e51b815260040161062a90613aa4565b60005b818110156106b15761069f83838381811061068457634e487b7160e01b600052603260045260246000fd5b90506040020180360381019061069a919061350d565b612c5c565b806106a981613faf565b915050610659565b505050565b3360009081526001602052604090205460ff16806106de57506000546001600160a01b031633145b6106fa5760405162461bcd60e51b815260040161062a90613b44565b60405133904780156108fc02916000818181858888f19350505050158015610726573d6000803e3d6000fd5b50565b60025460ff166107725760405162461bcd60e51b815260206004820152601460248201527314185d5cd8589b194e881b9bdd081c185d5cd95960621b604482015260640161062a565b3360009081526001602052604090205460ff168061079a57506000546001600160a01b031633145b6107b65760405162461bcd60e51b815260040161062a90613b44565b6107be612e93565b565b600581815481106107d057600080fd5b60009182526020909120600290910201805460019091015460ff909116915082565b6000546001600160a01b0316331461081c5760405162461bcd60e51b815260040161062a90613b0f565b6001600160a01b038216600081815260016020908152604091829020805460ff19168515159081179091558251938452908301527fe529461c8529abc0e0fe7c5ee361f74fe22e0b7574df1fc0b7558a282091fb78910160405180910390a15050565b3360009081526001602052604090205460ff16806108a757506000546001600160a01b031633145b6108c35760405162461bcd60e51b815260040161062a90613b44565b60025460ff16156108e65760405162461bcd60e51b815260040161062a90613aa4565b60048260ff168154811061090a57634e487b7160e01b600052603260045260246000fd5b9060005260206000209060020201600001805461092690613f7a565b151590506109465760405162461bcd60e51b815260040161062a90613a4c565b8060048360ff168154811061096b57634e487b7160e01b600052603260045260246000fd5b90600052602060002090600202018181610985919061401d565b505060ff82167fa5d8ef189198e4f116be48e3d1e8933d0017a3a2035a6ac35ad9d4ff2d330d6e6109b68380613c78565b6109c36020860186613c78565b6040516109d394939291906139ec565b60405180910390a25050565b6000546001600160a01b03163314610a095760405162461bcd60e51b815260040161062a90613b0f565b6107be6000612f26565b3360009081526001602052604090205460ff1680610a3b57506000546001600160a01b031633145b610a575760405162461bcd60e51b815260040161062a90613b44565b6001600160a01b038116610aad5760405162461bcd60e51b815260206004820152601b60248201527f4e756c6c20416464726573732063616e6e6f7420626520757365640000000000604482015260640161062a565b6001600160a01b0381163b15610b185760405162461bcd60e51b815260206004820152602a60248201527f43616e6e6f742075706461746520636f6e7472616374206164647265737320616044820152697320747265617375727960b01b606482015260840161062a565b600280546001600160a01b0390921661010002610100600160a81b0319909216919091179055565b60025460ff1615610b635760405162461bcd60e51b815260040161062a90613aa4565b3360009081526001602052604090205460ff1680610b8b57506000546001600160a01b031633145b610ba75760405162461bcd60e51b815260040161062a90613b44565b6107be612f76565b606060088281548110610bd257634e487b7160e01b600052603260045260246000fd5b9060005260206000209060030201600101805480602002602001604051908101604052809291908181526020018280548015610c5557602002820191906000526020600020906000905b82829054906101000a900461ffff1661ffff1681526020019060020190602082600101049283019260010382029150808411610c1c5790505b50505050509050919050565b606060078281548110610c8457634e487b7160e01b600052603260045260246000fd5b9060005260206000209060050201600101805480602002602001604051908101604052809291908181526020018280548015610c55576000918252602091829020805461ffff168452908202830192909160029101808411610c1c575094979650505050505050565b3360009081526001602052604090205460ff1680610d1557506000546001600160a01b031633145b610d315760405162461bcd60e51b815260040161062a90613b44565b60025460ff1615610d545760405162461bcd60e51b815260040161062a90613aa4565b6000610d608280613c31565b905011610da45760405162461bcd60e51b8152602060048201526012602482015271139bc813585d18da195cc8141c995cd95b9d60721b604482015260640161062a565b42816040013510158015610dbb5750428160600135115b8015610dce575080606001358160400135105b610e135760405162461bcd60e51b8152602060048201526016602482015275496e76616c69642073746172742f656e642074696d6560501b604482015260640161062a565b610e206020820182613c31565b159050610e635760405162461bcd60e51b8152602060048201526011602482015270496e636f727265637420526573756c747360781b604482015260640161062a565b60005b610e708280613c31565b9050811015610f47576000610e858380613c31565b83818110610ea357634e487b7160e01b600052603260045260246000fd5b9050602002013590508060058054905010158015610ef4575060058181548110610edd57634e487b7160e01b600052603260045260246000fd5b906000526020600020906002020160010154600014155b610f345760405162461bcd60e51b815260206004820152601160248201527013585d18da08139bdd081c1c995cd95b9d607a1b604482015260640161062a565b5080610f3f81613faf565b915050610e66565b506007805460018101825560009190915281906005027fa66cc928b5edb82af9bd49922954155ab7b0942694bea4ce44661d9a8736c68801610f898282614228565b5050600754610f9a90600190613d6d565b7f17acdde6598f8b672c46e1e5bd7d572aabc19066df26437b37e012d1d48e527a610fc58380613c31565b846040013585606001358660800135604051610fe59594939291906139a8565b60405180910390a250565b60025460ff16156110135760405162461bcd60e51b815260040161062a90613aa4565b33806110256080840160608501613368565b6001600160a01b03161461103857600080fd5b6110456020830183613c31565b90506110518380613c31565b9050146110705760405162461bcd60e51b815260040161062a90613ace565b60006007611084606085016040860161377c565b60ff16815481106110a557634e487b7160e01b600052603260045260246000fd5b906000526020600020906005020160020154116110d45760405162461bcd60e51b815260040161062a90613b85565b60005b6110e18380613c31565b9050811015611185576111346110fd606085016040860161377c565b60ff1661110a8580613c31565b8481811061112857634e487b7160e01b600052603260045260246000fd5b90506020020135612fce565b6111735760405162461bcd60e51b815260206004820152601060248201526f125b9d985b1a59081b585d18da08125960821b604482015260640161062a565b8061117d81613faf565b9150506110d7565b50426007611199606085016040860161377c565b60ff16815481106111ba57634e487b7160e01b600052603260045260246000fd5b9060005260206000209060050201600201541115801561121e57504260076111e8606085016040860161377c565b60ff168154811061120957634e487b7160e01b600052603260045260246000fd5b90600052602060002090600502016003015410155b6112745760405162461bcd60e51b815260206004820152602160248201527f506f6f6c73206f70656e2f636c6f73656420666f722050726564696374696f6e6044820152607360f81b606482015260840161062a565b6001600160a01b038116600090815260096020526040808220919061129f906060860190860161377c565b60ff908116825260208201929092526040016000205416156112f55760405162461bcd60e51b815260206004820152600f60248201526e13585d18da08141c99591a58dd1959608a1b604482015260640161062a565b6008805460018101825560009190915282906003027ff3f7a9fe364faab93b216da50a3214154f22a0a2b415b23a84c8169e8b636ee301611336828261413e565b50506001600160a01b0381166000908152600960205260408082206001929091611366906060870190870161377c565b60ff1681526020810191909152604001600020805460ff19169115159190911790556002546001600160a01b0361010090910416158015906113a9575060035415155b156115e157600060648060035460078660400160208101906113cb919061377c565b60ff16815481106113ec57634e487b7160e01b600052603260045260246000fd5b9060005260206000209060050201600401546114089190613d4e565b6114129190613d2e565b61141c9190613d2e565b6002546040516323b872dd60e01b81526001600160a01b03858116600483015261010090920482166024820152604481018390529192507f000000000000000000000000000000000000000000000000000000000000000016906323b872dd90606401602060405180830381600087803b15801561149957600080fd5b505af11580156114ad573d6000803e3d6000fd5b505050506040513d601f19601f820116820180604052508101906114d1919061349c565b506001600160a01b037f0000000000000000000000000000000000000000000000000000000000000000166323b872dd833084600761151660608a0160408b0161377c565b60ff168154811061153757634e487b7160e01b600052603260045260246000fd5b9060005260206000209060050201600401546115539190613d6d565b6040516001600160e01b031960e086901b1681526001600160a01b0393841660048201529290911660248301526044820152606401602060405180830381600087803b1580156115a257600080fd5b505af11580156115b6573d6000803e3d6000fd5b505050506040513d601f19601f820116820180604052508101906115da919061349c565b50506116e8565b6001600160a01b037f0000000000000000000000000000000000000000000000000000000000000000166323b872dd82306007611624606088016040890161377c565b60ff168154811061164557634e487b7160e01b600052603260045260246000fd5b9060005260206000209060050201600401546040518463ffffffff1660e01b8152600401611694939291906001600160a01b039384168152919092166020820152604081019190915260600190565b602060405180830381600087803b1580156116ae57600080fd5b505af11580156116c2573d6000803e3d6000fd5b505050506040513d601f19601f820116820180604052508101906116e6919061349c565b505b6008546116f790600190613d6d565b7f05641d7e233107f0dd8b4a90c5cce011fea80b83514ee0c7952ee875151a975b6117228480613c31565b61172f6020870187613c31565b61173f6060890160408a0161377c565b876040516109d39695949392919061395a565b3360009081526001602052604090205460ff168061177a57506000546001600160a01b031633145b6117965760405162461bcd60e51b815260040161062a90613b44565b60025460ff16156117b95760405162461bcd60e51b815260040161062a90613aa4565b805182513391146118165760405162461bcd60e51b815260206004820152602160248201527f77696e6e6572732e6c656e67746820213d205f616d6f756e74732e6c656e67746044820152600d60fb1b606482015260840161062a565b426007858154811061183857634e487b7160e01b600052603260045260246000fd5b9060005260206000209060050201600301541061188e5760405162461bcd60e51b8152602060048201526014602482015273506f6f6c206973207374696c6c2061637469766560601b604482015260640161062a565b60005b83518110156119bc5760008482815181106118bc57634e487b7160e01b600052603260045260246000fd5b6020026020010151905060008483815181106118e857634e487b7160e01b600052603260045260246000fd5b602002602001015190507f00000000000000000000000000000000000000000000000000000000000000006001600160a01b031663a9059cbb83836040518363ffffffff1660e01b81526004016119549291906001600160a01b03929092168252602082015260400190565b602060405180830381600087803b15801561196e57600080fd5b505af1158015611982573d6000803e3d6000fd5b505050506040513d601f19601f820116820180604052508101906119a6919061349c565b50505080806119b490613faf565b915050611891565b507f4c8790f9c2c879f71c3594d149ee6a40dee5b512a10daee60ee5c3f55cdbd6398484846040516119f093929190613bae565b60405180910390a150505050565b3360009081526001602052604090205460ff1680611a2657506000546001600160a01b031633145b611a425760405162461bcd60e51b815260040161062a90613b44565b60025460ff1615611a655760405162461bcd60e51b815260040161062a90613aa4565b61072661069a3683900383018361350d565b3360009081526001602052604090205460ff1680611a9f57506000546001600160a01b031633145b611abb5760405162461bcd60e51b815260040161062a90613b44565b60025460ff1615611ade5760405162461bcd60e51b815260040161062a90613aa4565b8181905060078481548110611b0357634e487b7160e01b600052603260045260246000fd5b600091825260209091206005909102015414611b6c5760405162461bcd60e51b815260206004820152602260248201527f6d617463684964732e6c656e67746820213d205f726573756c74732e6c656e676044820152610e8d60f31b606482015260840161062a565b60078381548110611b8d57634e487b7160e01b600052603260045260246000fd5b9060005260206000209060050201600301544211611be45760405162461bcd60e51b8152602060048201526014602482015273506f6f6c206973207374696c6c2061637469766560601b604482015260640161062a565b818160078581548110611c0757634e487b7160e01b600052603260045260246000fd5b90600052602060002090600502016001019190611c2592919061315e565b507f48bf7136e5fd7fb0036c703574d0c45bf7dca8d8bf6bbcac4fe139a2fda09374838383604051611c5993929190613c17565b60405180910390a1505050565b60078181548110611c7657600080fd5b600091825260209091206005909102016002810154600382015460049092015490925083565b60025460ff1615611cbf5760405162461bcd60e51b815260040161062a90613aa4565b336000818152600960205260408082209190611ce1906060860190860161377c565b60ff908116825260208201929092526040016000205416611d3d5760405162461bcd60e51b8152602060048201526016602482015275141bdbdb081b9bdd081e595d08141c99591a58dd195960521b604482015260640161062a565b611d4d606083016040840161377c565b60ff1660088481548110611d7157634e487b7160e01b600052603260045260246000fd5b600091825260209091206002600390920201015460ff1614611da55760405162461bcd60e51b815260040161062a90613b85565b806001600160a01b031660088481548110611dd057634e487b7160e01b600052603260045260246000fd5b600091825260209091206003909102016002015461010090046001600160a01b0316148015611e1f57506001600160a01b038116611e146080840160608501613368565b6001600160a01b0316145b611e5f5760405162461bcd60e51b815260206004820152601160248201527024b73b30b634b210383932b234b1ba37b960791b604482015260640161062a565b611e6c6020830183613c31565b9050611e788380613c31565b905014611e975760405162461bcd60e51b815260040161062a90613ace565b60005b611ea48380613c31565b9050811015611f1157611ec06110fd606085016040860161377c565b611eff5760405162461bcd60e51b815260206004820152601060248201526f125b9d985b1a59081b585d18da08125960821b604482015260640161062a565b80611f0981613faf565b915050611e9a565b50426007611f25606085016040860161377c565b60ff1681548110611f4657634e487b7160e01b600052603260045260246000fd5b9060005260206000209060050201600301541015611f955760405162461bcd60e51b815260206004820152600c60248201526b141bdbdb1cc818db1bdcd95960a21b604482015260640161062a565b8160088481548110611fb757634e487b7160e01b600052603260045260246000fd5b90600052602060002090600302018181611fd1919061413e565b508390507e69adde698f209debbd54bdb8875cdcf3d706bd156522af6b9914037aacb380611fff8480613c31565b61200c6020870187613c31565b61201c6060890160408a0161377c565b8760405161202f9695949392919061395a565b60405180910390a2505050565b3360009081526001602052604090205460ff168061206457506000546001600160a01b031633145b6120805760405162461bcd60e51b815260040161062a90613b44565b60025460ff16156120a35760405162461bcd60e51b815260040161062a90613aa4565b805160208201516004805460ff84169081106120cf57634e487b7160e01b600052603260045260246000fd5b906000526020600020906002020160000180546120eb90613f7a565b1515905061210b5760405162461bcd60e51b815260040161062a90613a4c565b60006005858154811061212e57634e487b7160e01b600052603260045260246000fd5b906000526020600020906002020160010154116121835760405162461bcd60e51b815260206004820152601360248201527213585d18da08191bd95cdb89dd08195e1a5cdd606a1b604482015260640161062a565b60ff82166000908152600660209081526040808320848452909152902054156121be5760405162461bcd60e51b815260040161062a90613a77565b60055460011161225b578160ff1660056000815481106121ee57634e487b7160e01b600052603260045260246000fd5b600091825260209091206002909102015460ff16141561225b5780600560008154811061222b57634e487b7160e01b600052603260045260246000fd5b906000526020600020906002020160010154141561225b5760405162461bcd60e51b815260040161062a90613a77565b600660006005868154811061228057634e487b7160e01b600052603260045260246000fd5b6000918252602080832060029092029091015460ff168352820192909252604001812060058054919291879081106122c857634e487b7160e01b600052603260045260246000fd5b906000526020600020906002020160010154815260200190815260200160002060009055826005858154811061230e57634e487b7160e01b600052603260045260246000fd5b60009182526020808320845160029390930201805460ff191660ff938416178155938101516001909401939093558416808252600683526040808320858452845291829020879055905183815286927fb459bba1754dd2f3043f92e1f7fcf7dd2e37b378c9b4b8562bec7b08e604a33c910160405180910390a350505050565b3360009081526001602052604090205460ff16806123b657506000546001600160a01b031633145b6123d25760405162461bcd60e51b815260040161062a90613b44565b60025460ff16156123f55760405162461bcd60e51b815260040161062a90613aa4565b60006124018280613c31565b9050116124455760405162461bcd60e51b8152602060048201526012602482015271139bc813585d18da195cc8141c995cd95b9d60721b604482015260640161062a565b60006007838154811061246857634e487b7160e01b600052603260045260246000fd5b906000526020600020906005020160030154116124975760405162461bcd60e51b815260040161062a90613b85565b600782815481106124b857634e487b7160e01b600052603260045260246000fd5b9060005260206000209060050201600201544211156125085760405162461bcd60e51b815260206004820152600c60248201526b141bdbdb081cdd185c9d195960a21b604482015260640161062a565b4281604001351015801561251f5750428160600135115b8015612532575080606001358160400135105b6125775760405162461bcd60e51b8152602060048201526016602482015275496e76616c69642073746172742f656e642074696d6560501b604482015260640161062a565b6125846020820182613c31565b1590506125c75760405162461bcd60e51b8152602060048201526011602482015270496e636f727265637420526573756c747360781b604482015260640161062a565b60005b6125d48280613c31565b90508110156126ab5760006125e98380613c31565b8381811061260757634e487b7160e01b600052603260045260246000fd5b905060200201359050806005805490501015801561265857506005818154811061264157634e487b7160e01b600052603260045260246000fd5b906000526020600020906002020160010154600014155b6126985760405162461bcd60e51b815260206004820152601160248201527013585d18da08139bdd081c1c995cd95b9d607a1b604482015260640161062a565b50806126a381613faf565b9150506125ca565b5080600783815481106126ce57634e487b7160e01b600052603260045260246000fd5b906000526020600020906005020181816126e89190614228565b508290507f28c65185c0c6b3a6ed960b1f1ee3b18fd1fd11187bb0943498d2450d51d4182d6127178380613c31565b8460400135856060013586608001356040516109d39594939291906139a8565b6004818154811061274757600080fd5b906000526020600020906002020160009150905080600001805461276a90613f7a565b80601f016020809104026020016040519081016040528092919081815260200182805461279690613f7a565b80156127e35780601f106127b8576101008083540402835291602001916127e3565b820191906000526020600020905b8154815290600101906020018083116127c657829003601f168201915b5050505050908060010180546127f890613f7a565b80601f016020809104026020016040519081016040528092919081815260200182805461282490613f7a565b80156128715780601f1061284657610100808354040283529160200191612871565b820191906000526020600020905b81548152906001019060200180831161285457829003601f168201915b5050505050905082565b3360009081526001602052604090205460ff16806128a357506000546001600160a01b031633145b6128bf5760405162461bcd60e51b815260040161062a90613b44565b600355565b6060600782815481106128e757634e487b7160e01b600052603260045260246000fd5b60009182526020918290206005909102018054604080518285028101850190915281815292830182828015610c5557602002820191906000526020600020905b8154815260200190600101908083116129275750505050509050919050565b3360009081526001602052604090205460ff168061296e57506000546001600160a01b031633145b61298a5760405162461bcd60e51b815260040161062a90613b44565b60025460ff16156129ad5760405162461bcd60e51b815260040161062a90613aa4565b61072681613092565b3360009081526001602052604090205460ff16806129de57506000546001600160a01b031633145b6129fa5760405162461bcd60e51b815260040161062a90613b44565b60025460ff1615612a1d5760405162461bcd60e51b815260040161062a90613aa4565b60005b818110156106b157612a62838383818110612a4b57634e487b7160e01b600052603260045260246000fd5b9050602002810190612a5d9190613cbc565b613092565b80612a6c81613faf565b915050612a20565b6000546001600160a01b03163314612a9e5760405162461bcd60e51b815260040161062a90613b0f565b6001600160a01b038116612b035760405162461bcd60e51b815260206004820152602660248201527f4f776e61626c653a206e6577206f776e657220697320746865207a65726f206160448201526564647265737360d01b606482015260840161062a565b61072681612f26565b3360009081526001602052604090205460ff1680612b3457506000546001600160a01b031633145b612b505760405162461bcd60e51b815260040161062a90613b44565b6000336040516370a0823160e01b81523060048201529091506000906001600160a01b038416906370a082319060240160206040518083038186803b158015612b9857600080fd5b505afa158015612bac573d6000803e3d6000fd5b505050506040513d601f19601f82011682018060405250810190612bd091906135a4565b60405163a9059cbb60e01b81526001600160a01b038481166004830152602482018390529192509084169063a9059cbb90604401602060405180830381600087803b158015612c1e57600080fd5b505af1158015612c32573d6000803e3d6000fd5b505050506040513d601f19601f82011682018060405250810190612c56919061349c565b50505050565b805160208083015160ff83166000908152600683526040808220838352909352919091205415612c9e5760405162461bcd60e51b815260040161062a90613a77565b600554600111612d3b578160ff166005600081548110612cce57634e487b7160e01b600052603260045260246000fd5b600091825260209091206002909102015460ff161415612d3b57806005600081548110612d0b57634e487b7160e01b600052603260045260246000fd5b9060005260206000209060020201600101541415612d3b5760405162461bcd60e51b815260040161062a90613a77565b60048260ff1681548110612d5f57634e487b7160e01b600052603260045260246000fd5b90600052602060002090600202016000018054612d7b90613f7a565b15159050612d9b5760405162461bcd60e51b815260040161062a90613a4c565b6005805460018082018355600083905285517f036b6384b5eca791c62761152d0c79bb0604c104a5fb6f4eb0703f3154bb3db06002909302928301805460ff191660ff90921691909117905560208601517f036b6384b5eca791c62761152d0c79bb0604c104a5fb6f4eb0703f3154bb3db1909201919091559054612e209190613d6d565b60ff83166000908152600660209081526040808320858452909152902055600554612e4d90600190613d6d565b8260ff167f19ecbd038702295e511b572528017ec9880800a405e01a517ea7e319867d895b8560200151604051612e8691815260200190565b60405180910390a3505050565b60025460ff16612edc5760405162461bcd60e51b815260206004820152601460248201527314185d5cd8589b194e881b9bdd081c185d5cd95960621b604482015260640161062a565b6002805460ff191690557f5db9ee0a495bf2e6ff9c91a7834c1ba4fdd244a5e8aa4e537bd38aeae4b073aa335b6040516001600160a01b03909116815260200160405180910390a1565b600080546001600160a01b038381166001600160a01b0319831681178455604051919092169283917f8be0079c531659141344cd1fd0a4f28419497f9722a3daafe3b4186f6b6457e09190a35050565b60025460ff1615612f995760405162461bcd60e51b815260040161062a90613aa4565b6002805460ff191660011790557f62e78cea01bee320cd4e420270b5ea74000d11b0c9f74754ebdbfc544b05a258612f093390565b6000805b60078481548110612ff357634e487b7160e01b600052603260045260246000fd5b600091825260209091206005909102015481101561308a57826007858154811061302d57634e487b7160e01b600052603260045260246000fd5b9060005260206000209060050201600001828154811061305d57634e487b7160e01b600052603260045260246000fd5b9060005260206000200154141561307857600191505061308c565b8061308281613faf565b915050612fd2565b505b92915050565b61309c8180613c78565b15801591506130b857506130b36020820182613c78565b151590505b6130c157600080fd5b6004805460018101825560009190915281906002027f8a35acfbc15ff81a39ae7d344fd709f28e8600b4aa8c65c6b64bfe7fe36bd19b01613102828261401d565b505060045461311390600190613d6d565b60ff167fba9863965231f2a302bdbad5c8dbcc6bacef50ab932d57d04eae568a99a4eb9d6131418380613c78565b61314e6020860186613c78565b604051610fe594939291906139ec565b82805482825590600052602060002090600f016010900481019282156131fb5791602002820160005b838211156131cb57833561ffff1683826101000a81548161ffff021916908361ffff1602179055509260200192600201602081600101049283019260010302613187565b80156131f95782816101000a81549061ffff02191690556002016020816001010492830192600103026131cb565b505b5061320792915061320b565b5090565b5b80821115613207576000815560010161320c565b60008083601f840112613231578182fd5b5081356001600160401b03811115613247578182fd5b6020830191508360208260051b850101111561326257600080fd5b9250929050565b600082601f830112613279578081fd5b8135602061328e61328983613d0b565b613cdb565b80838252828201915082860187848660051b89010111156132ad578586fd5b855b858110156132cb578135845292840192908401906001016132af565b5090979650505050505050565b6000604082840312156132e9578081fd5b50919050565b600060408284031215613300578081fd5b604051604081018181106001600160401b038211171561332257613322613fe0565b60405290508082356133338161430e565b8152602092830135920191909152919050565b6000608082840312156132e9578081fd5b600060a082840312156132e9578081fd5b600060208284031215613379578081fd5b8135613384816142db565b9392505050565b6000806040838503121561339d578081fd5b82356133a8816142db565b915060208301356133b8816142f0565b809150509250929050565b600080604083850312156133d5578182fd5b82356133e0816142db565b946020939093013593505050565b60008060208385031215613400578182fd5b82356001600160401b03811115613415578283fd5b61342185828601613220565b90969095509350505050565b6000806020838503121561343f578182fd5b82356001600160401b0380821115613455578384fd5b818501915085601f830112613468578384fd5b813581811115613476578485fd5b8660208260061b850101111561348a578485fd5b60209290920196919550909350505050565b6000602082840312156134ad578081fd5b8151613384816142f0565b6000602082840312156134c9578081fd5b81356001600160401b038111156134de578182fd5b6134ea848285016132d8565b949350505050565b600060408284031215613503578081fd5b61338483836132d8565b60006040828403121561351e578081fd5b61338483836132ef565b600060208284031215613539578081fd5b81356001600160401b0381111561354e578182fd5b6134ea84828501613346565b60006020828403121561356b578081fd5b81356001600160401b03811115613580578182fd5b6134ea84828501613357565b60006020828403121561359d578081fd5b5035919050565b6000602082840312156135b5578081fd5b5051919050565b6000806000606084860312156135d0578081fd5b833592506020808501356001600160401b03808211156135ee578384fd5b818701915087601f830112613601578384fd5b813561360f61328982613d0b565b8082825285820191508585018b878560051b880101111561362e578788fd5b8795505b83861015613659578035613645816142db565b835260019590950194918601918601613632565b50965050506040870135925080831115613671578384fd5b505061367f86828701613269565b9150509250925092565b60008060006040848603121561369d578081fd5b8335925060208401356001600160401b038111156136b9578182fd5b6136c586828701613220565b9497909650939450505050565b600080606083850312156136e4578182fd5b823591506136f584602085016132ef565b90509250929050565b60008060408385031215613710578182fd5b8235915060208301356001600160401b0381111561372c578182fd5b61373885828601613346565b9150509250929050565b60008060408385031215613754578182fd5b8235915060208301356001600160401b03811115613770578182fd5b61373885828601613357565b60006020828403121561378d578081fd5b81356133848161430e565b600080604083850312156137aa578182fd5b82356137b58161430e565b915060208301356001600160401b038111156137cf578182fd5b613738858286016132d8565b600080604083850312156137ed578182fd5b82356133e08161430e565b81835260006020808501945082825b8581101561383057813561381a816142fe565b61ffff1687529582019590820190600101613807565b509495945050505050565b81835260006001600160fb1b03831115613853578081fd5b8260051b80836020870137939093016020019283525090919050565b6000815180845260208085019450808401835b8381101561383057815187529582019590820190600101613882565b81835281816020850137506000828201602090810191909152601f909101601f19169091010190565b60008151808452815b818110156138ec576020818501810151868301820152016138d0565b818111156138fd5782602083870101525b50601f01601f19169290920160200192915050565b6020808252825182820181905260009190848201906040850190845b8181101561394e57835161ffff168352928401929184019160010161392e565b50909695505050505050565b60808152600061396e60808301888a61383b565b82810360208401526139818187896137f8565b60ff95909516604084015250506001600160a01b0391909116606090910152949350505050565b6080815260006139bc60808301878961383b565b602083019590955250604081019290925260609091015292915050565b602081526000613384602083018461386f565b604081526000613a0060408301868861389e565b8281036020840152613a1381858761389e565b979650505050505050565b604081526000613a3160408301856138c7565b8281036020840152613a4381856138c7565b95945050505050565b602080825260119082015270125b9d985b1a59081b195859dd59481259607a1b604082015260600190565b60208082526013908201527213585d18da08185b1c9958591e481859191959606a1b604082015260600190565b60208082526010908201526f14185d5cd8589b194e881c185d5cd95960821b604082015260600190565b60208082526021908201527f6d617463684964732e6c656e67746820213d2063686f696365732e6c656e67746040820152600d60fb1b606082015260800190565b6020808252818101527f4f776e61626c653a2063616c6c6572206973206e6f7420746865206f776e6572604082015260600190565b60208082526021908201527f43616c6c657220646f6573206e6f7420686176652041646d696e2041636365736040820152607360f81b606082015260800190565b6020808252600f908201526e125b9d985b1a5908141bdbdb081259608a1b604082015260600190565b60006060820185835260206060818501528186518084526080860191508288019350845b81811015613bf75784516001600160a01b031683529383019391830191600101613bd2565b50508481036040860152613c0b818761386f565b98975050505050505050565b838152604060208201526000613a436040830184866137f8565b6000808335601e19843603018112613c47578283fd5b8301803591506001600160401b03821115613c60578283fd5b6020019150600581901b360382131561326257600080fd5b6000808335601e19843603018112613c8e578283fd5b8301803591506001600160401b03821115613ca7578283fd5b60200191503681900382131561326257600080fd5b60008235603e19833603018112613cd1578182fd5b9190910192915050565b604051601f8201601f191681016001600160401b0381118282101715613d0357613d03613fe0565b604052919050565b60006001600160401b03821115613d2457613d24613fe0565b5060051b60200190565b600082613d4957634e487b7160e01b81526012600452602481fd5b500490565b6000816000190483118215151615613d6857613d68613fca565b500290565b600082821015613d7f57613d7f613fca565b500390565b5b81811015613d995760008155600101613d85565b5050565b600160401b831115613db157613db1613fe0565b805483825580841015613e0a57816000526020600020600f850160041c8101601e8660011b168015613df4576000198083018054828460200360031b1c16815550505b50613e07600f840160041c830182613d84565b50505b506000818152602081208391805b86811015613e7257613e4a613e2c85614003565b845461ffff600386901b81811b801990931693909116901b16178455565b602084019350600282019150601e821115613e6a57600091506001830192505b600101613e18565b50505050505050565b6001600160401b03831115613e9257613e92613fe0565b613e9c8154613f7a565b600080601f8611601f841181811715613ebb5760008681526020902092505b8015613eea57601f880160051c83016020891015613ed65750825b613ee8601f870160051c850182613d84565b505b508060018114613f1e57600094508715613f05578387013594505b600188901b60001960038a901b1c198616178655613f70565b601f198816945082845b86811015613f485788860135825560209586019560019092019101613f28565b5088861015613f655760001960f88a60031b161c19858901351681555b5060018860011b0186555b5050505050505050565b600181811c90821680613f8e57607f821691505b602082108114156132e957634e487b7160e01b600052602260045260246000fd5b6000600019821415613fc357613fc3613fca565b5060010190565b634e487b7160e01b600052601160045260246000fd5b634e487b7160e01b600052604160045260246000fd5b6000813561308c816142db565b6000813561308c816142fe565b6000813561308c8161430e565b6140278283613c78565b6001600160401b0381111561403e5761403e613fe0565b6140488354613f7a565b600080601f8411601f8411818117156140675760008881526020902092505b801561409657601f860160051c830160208710156140825750825b614094601f870160051c850182613d84565b505b5080600181146140ca576000945085156140b1578387013594505b600186901b600019600388901b1c19861617885561411c565b601f198616945082845b868110156140f457888601358255602095860195600190920191016140d4565b50868610156141115760001960f88860031b161c19858901351681555b5060018660011b0188555b505050505050506141306020830183613c78565b612c56818360018601613e7b565b6141488283613c31565b600160401b81111561415c5761415c613fe0565b82548184558082101561418257836000526020600020614180828201848301613d84565b505b508260005260208060002060005b838110156141ac57843582559382019360019182019101614190565b50506141ba81860186613c31565b93509150506141cd828260018601613d9d565b5050600281016141f36141e260408501614010565b825460ff191660ff91909116178255565b6106b161420260608501613ff6565b828054610100600160a81b03191660089290921b610100600160a81b0316919091179055565b6142328283613c31565b600160401b81111561424657614246613fe0565b82548184558082101561426c5783600052602060002061426a828201848301613d84565b505b508260005260208060002060005b838110156142965784358255938201936001918201910161427a565b50506142a481860186613c31565b93509150506142b7828260018601613d9d565b50506040820135600282015560608201356003820155608082013560048201555050565b6001600160a01b038116811461072657600080fd5b801515811461072657600080fd5b61ffff8116811461072657600080fd5b60ff8116811461072657600080fdfea26469706673582212206c8cfe27d983735f048674bde1077d27cbabbd0698484f96a063f4855af70e2064736f6c63430008040033",
  "linkReferences": {},
  "deployedLinkReferences": {}
}